{"abi":[{"type":"constructor","inputs":[],"stateMutability":"nonpayable"},{"type":"receive","stateMutability":"payable"},{"type":"function","name":"FEE_DENOMINATOR","inputs":[],"outputs":[{"name":"","type":"uint256","internalType":"uint256"}],"stateMutability":"view"},{"type":"function","name":"acceptBattle","inputs":[{"name":"_battleId","type":"uint256","internalType":"uint256"}],"outputs":[],"stateMutability":"payable"},{"type":"function","name":"battles","inputs":[{"name":"","type":"uint256","internalType":"uint256"}],"outputs":[{"name":"id","type":"uint256","internalType":"uint256"},{"name":"prediction","type":"string","internalType":"string"},{"name":"description","type":"string","internalType":"string"},{"name":"stakeAmount","type":"uint256","internalType":"uint256"},{"name":"challenger","type":"address","internalType":"address"},{"name":"opponent","type":"address","internalType":"address"},{"name":"endTime","type":"uint256","internalType":"uint256"},{"name":"status","type":"uint8","internalType":"enum FrameBattles.BattleStatus"},{"name":"winner","type":"address","internalType":"address"},{"name":"createdAt","type":"uint256","internalType":"uint256"},{"name":"challengerSaysYes","type":"bool","internalType":"bool"}],"stateMutability":"view"},{"type":"function","name":"cancelBattle","inputs":[{"name":"_battleId","type":"uint256","internalType":"uint256"}],"outputs":[],"stateMutability":"nonpayable"},{"type":"function","name":"createBattle","inputs":[{"name":"_prediction","type":"string","internalType":"string"},{"name":"_description","type":"string","internalType":"string"},{"name":"_endTime","type":"uint256","internalType":"uint256"},{"name":"_challengerSaysYes","type":"bool","internalType":"bool"},{"name":"_specificOpponent","type":"address","internalType":"address"}],"outputs":[{"name":"","type":"uint256","internalType":"uint256"}],"stateMutability":"payable"},{"type":"function","name":"emergencyWithdraw","inputs":[{"name":"_amount","type":"uint256","internalType":"uint256"}],"outputs":[],"stateMutability":"nonpayable"},{"type":"function","name":"getAllBattles","inputs":[],"outputs":[{"name":"","type":"tuple[]","internalType":"struct FrameBattles.BattleView[]","components":[{"name":"id","type":"uint256","internalType":"uint256"},{"name":"prediction","type":"string","internalType":"string"},{"name":"description","type":"string","internalType":"string"},{"name":"stakeAmount","type":"uint256","internalType":"uint256"},{"name":"challenger","type":"address","internalType":"address"},{"name":"opponent","type":"address","internalType":"address"},{"name":"endTime","type":"uint256","internalType":"uint256"},{"name":"status","type":"uint8","internalType":"enum FrameBattles.BattleStatus"},{"name":"winner","type":"address","internalType":"address"},{"name":"createdAt","type":"uint256","internalType":"uint256"},{"name":"challengerSaysYes","type":"bool","internalType":"bool"}]}],"stateMutability":"view"},{"type":"function","name":"getBattle","inputs":[{"name":"_battleId","type":"uint256","internalType":"uint256"}],"outputs":[{"name":"id","type":"uint256","internalType":"uint256"},{"name":"prediction","type":"string","internalType":"string"},{"name":"description","type":"string","internalType":"string"},{"name":"stakeAmount","type":"uint256","internalType":"uint256"},{"name":"challenger","type":"address","internalType":"address"},{"name":"opponent","type":"address","internalType":"address"},{"name":"endTime","type":"uint256","internalType":"uint256"},{"name":"status","type":"uint8","internalType":"enum FrameBattles.BattleStatus"},{"name":"winner","type":"address","internalType":"address"},{"name":"createdAt","type":"uint256","internalType":"uint256"},{"name":"challengerSaysYes","type":"bool","internalType":"bool"}],"stateMutability":"view"},{"type":"function","name":"getBattlesCount","inputs":[],"outputs":[{"name":"","type":"uint256","internalType":"uint256"}],"stateMutability":"view"},{"type":"function","name":"getLeaderboard","inputs":[{"name":"_limit","type":"uint256","internalType":"uint256"}],"outputs":[{"name":"","type":"address[]","internalType":"address[]"},{"name":"","type":"tuple[]","internalType":"struct FrameBattles.UserStats[]","components":[{"name":"totalBattles","type":"uint256","internalType":"uint256"},{"name":"wins","type":"uint256","internalType":"uint256"},{"name":"losses","type":"uint256","internalType":"uint256"},{"name":"totalStaked","type":"uint256","internalType":"uint256"},{"name":"totalWinnings","type":"uint256","internalType":"uint256"}]}],"stateMutability":"view"},{"type":"function","name":"getUserBattles","inputs":[{"name":"_user","type":"address","internalType":"address"}],"outputs":[{"name":"","type":"uint256[]","internalType":"uint256[]"}],"stateMutability":"view"},{"type":"function","name":"getUserStats","inputs":[{"name":"_user","type":"address","internalType":"address"}],"outputs":[{"name":"","type":"tuple","internalType":"struct FrameBattles.UserStats","components":[{"name":"totalBattles","type":"uint256","internalType":"uint256"},{"name":"wins","type":"uint256","internalType":"uint256"},{"name":"losses","type":"uint256","internalType":"uint256"},{"name":"totalStaked","type":"uint256","internalType":"uint256"},{"name":"totalWinnings","type":"uint256","internalType":"uint256"}]}],"stateMutability":"view"},{"type":"function","name":"owner","inputs":[],"outputs":[{"name":"","type":"address","internalType":"address"}],"stateMutability":"view"},{"type":"function","name":"pause","inputs":[],"outputs":[],"stateMutability":"nonpayable"},{"type":"function","name":"paused","inputs":[],"outputs":[{"name":"","type":"bool","internalType":"bool"}],"stateMutability":"view"},{"type":"function","name":"platformFee","inputs":[],"outputs":[{"name":"","type":"uint256","internalType":"uint256"}],"stateMutability":"view"},{"type":"function","name":"renounceOwnership","inputs":[],"outputs":[],"stateMutability":"nonpayable"},{"type":"function","name":"resolveBattle","inputs":[{"name":"_battleId","type":"uint256","internalType":"uint256"},{"name":"_predictionCameTrue","type":"bool","internalType":"bool"}],"outputs":[],"stateMutability":"nonpayable"},{"type":"function","name":"setPlatformFee","inputs":[{"name":"_newFee","type":"uint256","internalType":"uint256"}],"outputs":[],"stateMutability":"nonpayable"},{"type":"function","name":"totalPlatformFees","inputs":[],"outputs":[{"name":"","type":"uint256","internalType":"uint256"}],"stateMutability":"view"},{"type":"function","name":"transferOwnership","inputs":[{"name":"newOwner","type":"address","internalType":"address"}],"outputs":[],"stateMutability":"nonpayable"},{"type":"function","name":"unpause","inputs":[],"outputs":[],"stateMutability":"nonpayable"},{"type":"function","name":"userBattles","inputs":[{"name":"","type":"address","internalType":"address"},{"name":"","type":"uint256","internalType":"uint256"}],"outputs":[{"name":"","type":"uint256","internalType":"uint256"}],"stateMutability":"view"},{"type":"function","name":"userStats","inputs":[{"name":"","type":"address","internalType":"address"}],"outputs":[{"name":"totalBattles","type":"uint256","internalType":"uint256"},{"name":"wins","type":"uint256","internalType":"uint256"},{"name":"losses","type":"uint256","internalType":"uint256"},{"name":"totalStaked","type":"uint256","internalType":"uint256"},{"name":"totalWinnings","type":"uint256","internalType":"uint256"}],"stateMutability":"view"},{"type":"function","name":"withdrawPlatformFees","inputs":[],"outputs":[],"stateMutability":"nonpayable"},{"type":"event","name":"BattleAccepted","inputs":[{"name":"battleId","type":"uint256","indexed":true,"internalType":"uint256"},{"name":"opponent","type":"address","indexed":true,"internalType":"address"}],"anonymous":false},{"type":"event","name":"BattleCancelled","inputs":[{"name":"battleId","type":"uint256","indexed":true,"internalType":"uint256"}],"anonymous":false},{"type":"event","name":"BattleCreated","inputs":[{"name":"battleId","type":"uint256","indexed":true,"internalType":"uint256"},{"name":"challenger","type":"address","indexed":true,"internalType":"address"},{"name":"prediction","type":"string","indexed":false,"internalType":"string"},{"name":"stakeAmount","type":"uint256","indexed":false,"internalType":"uint256"},{"name":"endTime","type":"uint256","indexed":false,"internalType":"uint256"}],"anonymous":false},{"type":"event","name":"BattleResolved","inputs":[{"name":"battleId","type":"uint256","indexed":true,"internalType":"uint256"},{"name":"winner","type":"address","indexed":true,"internalType":"address"},{"name":"payout","type":"uint256","indexed":false,"internalType":"uint256"}],"anonymous":false},{"type":"event","name":"OwnershipTransferred","inputs":[{"name":"previousOwner","type":"address","indexed":true,"internalType":"address"},{"name":"newOwner","type":"address","indexed":true,"internalType":"address"}],"anonymous":false},{"type":"event","name":"Paused","inputs":[{"name":"account","type":"address","indexed":false,"internalType":"address"}],"anonymous":false},{"type":"event","name":"Unpaused","inputs":[{"name":"account","type":"address","indexed":false,"internalType":"address"}],"anonymous":false},{"type":"error","name":"EnforcedPause","inputs":[]},{"type":"error","name":"ExpectedPause","inputs":[]},{"type":"error","name":"OwnableInvalidOwner","inputs":[{"name":"owner","type":"address","internalType":"address"}]},{"type":"error","name":"OwnableUnauthorizedAccount","inputs":[{"name":"account","type":"address","internalType":"address"}]},{"type":"error","name":"ReentrancyGuardReentrantCall","inputs":[]}],"bytecode":{"object":"0x60806040526019600155348015610014575f5ffd5b50335f73ffffffffffffffffffffffffffffffffffffffff168173ffffffffffffffffffffffffffffffffffffffff1603610086575f6040517f1e4fbdf700000000000000000000000000000000000000000000000000000000815260040161007d91906101f1565b60405180910390fd5b610095816100bf60201b60201c565b5060016100b46100a961018060201b60201c565b6101a960201b60201c565b5f018190555061020a565b5f5f5f9054906101000a900473ffffffffffffffffffffffffffffffffffffffff169050815f5f6101000a81548173ffffffffffffffffffffffffffffffffffffffff021916908373ffffffffffffffffffffffffffffffffffffffff1602179055508173ffffffffffffffffffffffffffffffffffffffff168173ffffffffffffffffffffffffffffffffffffffff167f8be0079c531659141344cd1fd0a4f28419497f9722a3daafe3b4186f6b6457e060405160405180910390a35050565b5f7f9b779b17422d0df92223018b32b4d1fa46e071723d6817e2486d003becc55f005f1b905090565b5f819050919050565b5f73ffffffffffffffffffffffffffffffffffffffff82169050919050565b5f6101db826101b2565b9050919050565b6101eb816101d1565b82525050565b5f6020820190506102045f8301846101e2565b92915050565b61430f806102175f395ff3fe608060405260043610610169575f3560e01c80636dd0ce7a116100d05780639cc429dc11610089578063d3631fa511610063578063d3631fa51461050b578063d73792a914610535578063f2fde38b1461055f578063f5dbbaed1461058757610170565b80639cc429dc1461048e578063a34b46fe146104b8578063d0b7830b146104f557610170565b80636dd0ce7a14610396578063715018a6146103dc57806381ec30f2146103f25780638456cb591461040e5780638a65d874146104245780638da5cb5b1461046457610170565b80634c4c447e116101225780634c4c447e146102705780634e43603a146102985780635312ea8e146102d45780635c93fc3d146102fc5780635c975abb14610326578063606d2e961461035057610170565b8063057601811461017457806312e8e2c3146101b0578063177983b2146101d857806326232a2e1461020857806335266eca146102325780633f4ba83a1461025a57610170565b3661017057005b5f5ffd5b34801561017f575f5ffd5b5061019a60048036038101906101959190612c7c565b6105c3565b6040516101a79190612cc9565b60405180910390f35b3480156101bb575f5ffd5b506101d660048036038101906101d19190612ce2565b6105ee565b005b6101f260048036038101906101ed9190612e7e565b610644565b6040516101ff9190612cc9565b60405180910390f35b348015610213575f5ffd5b5061021c610ad2565b6040516102299190612cc9565b60405180910390f35b34801561023d575f5ffd5b5061025860048036038101906102539190612f2d565b610ad8565b005b348015610265575f5ffd5b5061026e6110bd565b005b34801561027b575f5ffd5b5061029660048036038101906102919190612ce2565b6110cf565b005b3480156102a3575f5ffd5b506102be60048036038101906102b99190612f6b565b61137d565b6040516102cb919061300b565b60405180910390f35b3480156102df575f5ffd5b506102fa60048036038101906102f59190612ce2565b611405565b005b348015610307575f5ffd5b506103106114d0565b60405161031d91906132c3565b60405180910390f35b348015610331575f5ffd5b5061033a6117e6565b60405161034791906132f2565b60405180910390f35b34801561035b575f5ffd5b5061037660048036038101906103719190612ce2565b6117fb565b60405161038d9b9a99989796959493929190613371565b60405180910390f35b3480156103a1575f5ffd5b506103bc60048036038101906103b79190612ce2565b6119e2565b6040516103d39b9a99989796959493929190613371565b60405180910390f35b3480156103e7575f5ffd5b506103f0611bf5565b005b61040c60048036038101906104079190612ce2565b611c08565b005b348015610419575f5ffd5b506104226122b5565b005b34801561042f575f5ffd5b5061044a60048036038101906104459190612f6b565b6122c7565b60405161045b959493929190613428565b60405180910390f35b34801561046f575f5ffd5b506104786122f9565b6040516104859190613479565b60405180910390f35b348015610499575f5ffd5b506104a2612320565b6040516104af9190612cc9565b60405180910390f35b3480156104c3575f5ffd5b506104de60048036038101906104d99190612ce2565b61232c565b6040516104ec929190613648565b60405180910390f35b348015610500575f5ffd5b506105096125b4565b005b348015610516575f5ffd5b5061051f61268c565b60405161052c9190612cc9565b60405180910390f35b348015610540575f5ffd5b50610549612692565b6040516105569190612cc9565b60405180910390f35b34801561056a575f5ffd5b5061058560048036038101906105809190612f6b565b612698565b005b348015610592575f5ffd5b506105ad60048036038101906105a89190612f6b565b61271c565b6040516105ba9190613725565b60405180910390f35b6004602052815f5260405f2081815481106105dc575f80fd5b905f5260205f20015f91509150505481565b6105f66127af565b603281111561063a576040517f08c379a00000000000000000000000000000000000000000000000000000000081526004016106319061378f565b60405180910390fd5b8060018190555050565b5f61064d612836565b610655612877565b5f3411610697576040517f08c379a000000000000000000000000000000000000000000000000000000000815260040161068e906137f7565b60405180910390fd5b610e10426106a59190613842565b84116106e6576040517f08c379a00000000000000000000000000000000000000000000000000000000081526004016106dd906138bf565b60405180910390fd5b5f865111610729576040517f08c379a000000000000000000000000000000000000000000000000000000000815260040161072090613927565b60405180910390fd5b5f600280549050905060026040518061016001604052808381526020018981526020018881526020013481526020013373ffffffffffffffffffffffffffffffffffffffff1681526020018573ffffffffffffffffffffffffffffffffffffffff1681526020018781526020015f60038111156107a9576107a86130bc565b5b81526020015f73ffffffffffffffffffffffffffffffffffffffff168152602001428152602001861515815250908060018154018082558091505060019003905f5260205f2090600a02015f909190919091505f820151815f015560208201518160010190816108199190613b42565b50604082015181600201908161082f9190613b42565b50606082015181600301556080820151816004015f6101000a81548173ffffffffffffffffffffffffffffffffffffffff021916908373ffffffffffffffffffffffffffffffffffffffff16021790555060a0820151816005015f6101000a81548173ffffffffffffffffffffffffffffffffffffffff021916908373ffffffffffffffffffffffffffffffffffffffff16021790555060c0820151816006015560e0820151816007015f6101000a81548160ff021916908360038111156108fa576108f96130bc565b5b02179055506101008201518160070160016101000a81548173ffffffffffffffffffffffffffffffffffffffff021916908373ffffffffffffffffffffffffffffffffffffffff1602179055506101208201518160080155610140820151816009015f6101000a81548160ff021916908315150217905550505060045f3373ffffffffffffffffffffffffffffffffffffffff1673ffffffffffffffffffffffffffffffffffffffff1681526020019081526020015f2081908060018154018082558091505060019003905f5260205f20015f90919091909150555f73ffffffffffffffffffffffffffffffffffffffff168373ffffffffffffffffffffffffffffffffffffffff1614610a6a5760045f8473ffffffffffffffffffffffffffffffffffffffff1673ffffffffffffffffffffffffffffffffffffffff1681526020019081526020015f2081908060018154018082558091505060019003905f5260205f20015f90919091909150555b3373ffffffffffffffffffffffffffffffffffffffff16817f3d320cdac5e58affcadda97a4a73f94fa04bb7350ed631a126967a5166df5b52893489604051610ab593929190613c11565b60405180910390a380915050610ac9612899565b95945050505050565b60015481565b610ae0612877565b6002805490508210610b27576040517f08c379a0000000000000000000000000000000000000000000000000000000008152600401610b1e90613c97565b60405180910390fd5b5f60028381548110610b3c57610b3b613cb5565b5b905f5260205f2090600a0201905060016003811115610b5e57610b5d6130bc565b5b816007015f9054906101000a900460ff166003811115610b8157610b806130bc565b5b14610bc1576040517f08c379a0000000000000000000000000000000000000000000000000000000008152600401610bb890613d2c565b60405180910390fd5b806004015f9054906101000a900473ffffffffffffffffffffffffffffffffffffffff1673ffffffffffffffffffffffffffffffffffffffff163373ffffffffffffffffffffffffffffffffffffffff161480610c505750610c216122f9565b73ffffffffffffffffffffffffffffffffffffffff163373ffffffffffffffffffffffffffffffffffffffff16145b610c8f576040517f08c379a0000000000000000000000000000000000000000000000000000000008152600401610c8690613dba565b60405180910390fd5b8060060154421015610cd6576040517f08c379a0000000000000000000000000000000000000000000000000000000008152600401610ccd90613e22565b60405180910390fd5b6002816007015f6101000a81548160ff02191690836003811115610cfd57610cfc6130bc565b5b02179055505f816009015f9054906101000a900460ff16151583151503610d4957816004015f9054906101000a900473ffffffffffffffffffffffffffffffffffffffff169050610d70565b816005015f9054906101000a900473ffffffffffffffffffffffffffffffffffffffff1690505b808260070160016101000a81548173ffffffffffffffffffffffffffffffffffffffff021916908373ffffffffffffffffffffffffffffffffffffffff1602179055505f60028360030154610dc59190613e40565b90505f6103e860015483610dd99190613e40565b610de39190613eae565b90505f8183610df29190613ede565b90508160055f828254610e059190613842565b9250508190555060035f8573ffffffffffffffffffffffffffffffffffffffff1673ffffffffffffffffffffffffffffffffffffffff1681526020019081526020015f206001015f815480929190610e5c90613f11565b91905055508060035f8673ffffffffffffffffffffffffffffffffffffffff1673ffffffffffffffffffffffffffffffffffffffff1681526020019081526020015f206004015f828254610eb09190613842565b925050819055505f856004015f9054906101000a900473ffffffffffffffffffffffffffffffffffffffff1673ffffffffffffffffffffffffffffffffffffffff168573ffffffffffffffffffffffffffffffffffffffff1614610f3757856004015f9054906101000a900473ffffffffffffffffffffffffffffffffffffffff16610f5c565b856005015f9054906101000a900473ffffffffffffffffffffffffffffffffffffffff165b905060035f8273ffffffffffffffffffffffffffffffffffffffff1673ffffffffffffffffffffffffffffffffffffffff1681526020019081526020015f206002015f815480929190610fae90613f11565b91905055505f8573ffffffffffffffffffffffffffffffffffffffff1683604051610fd890613f85565b5f6040518083038185875af1925050503d805f8114611012576040519150601f19603f3d011682016040523d82523d5f602084013e611017565b606091505b505090508061105b576040517f08c379a000000000000000000000000000000000000000000000000000000000815260040161105290613fe3565b60405180910390fd5b8573ffffffffffffffffffffffffffffffffffffffff16897fc85097f9623f9aa19887350307755ffa817b32afe05876349bc770aae879e3d8856040516110a29190612cc9565b60405180910390a3505050505050506110b9612899565b5050565b6110c56127af565b6110cd6128b3565b565b6110d7612877565b600280549050811061111e576040517f08c379a000000000000000000000000000000000000000000000000000000000815260040161111590613c97565b60405180910390fd5b5f6002828154811061113357611132613cb5565b5b905f5260205f2090600a020190505f6003811115611154576111536130bc565b5b816007015f9054906101000a900460ff166003811115611177576111766130bc565b5b146111b7576040517f08c379a00000000000000000000000000000000000000000000000000000000081526004016111ae9061404b565b60405180910390fd5b806004015f9054906101000a900473ffffffffffffffffffffffffffffffffffffffff1673ffffffffffffffffffffffffffffffffffffffff163373ffffffffffffffffffffffffffffffffffffffff1614611248576040517f08c379a000000000000000000000000000000000000000000000000000000000815260040161123f906140b3565b60405180910390fd5b6003816007015f6101000a81548160ff0219169083600381111561126f5761126e6130bc565b5b02179055505f816004015f9054906101000a900473ffffffffffffffffffffffffffffffffffffffff1673ffffffffffffffffffffffffffffffffffffffff1682600301546040516112c090613f85565b5f6040518083038185875af1925050503d805f81146112fa576040519150601f19603f3d011682016040523d82523d5f602084013e6112ff565b606091505b5050905080611343576040517f08c379a000000000000000000000000000000000000000000000000000000000815260040161133a90613fe3565b60405180910390fd5b827fe10fd8c156678d18df7daf6dd3e15b95c6d350ee99272630fcad6dde9bef0d0c60405160405180910390a2505061137a612899565b50565b611385612b0d565b60035f8373ffffffffffffffffffffffffffffffffffffffff1673ffffffffffffffffffffffffffffffffffffffff1681526020019081526020015f206040518060a00160405290815f82015481526020016001820154815260200160028201548152602001600382015481526020016004820154815250509050919050565b61140d6127af565b611415612877565b5f61141e6122f9565b73ffffffffffffffffffffffffffffffffffffffff168260405161144190613f85565b5f6040518083038185875af1925050503d805f811461147b576040519150601f19603f3d011682016040523d82523d5f602084013e611480565b606091505b50509050806114c4576040517f08c379a00000000000000000000000000000000000000000000000000000000081526004016114bb90613fe3565b60405180910390fd5b506114cd612899565b50565b60605f60028054905067ffffffffffffffff8111156114f2576114f1612d25565b5b60405190808252806020026020018201604052801561152b57816020015b611518612b37565b8152602001906001900390816115105790505b5090505f5f90505b6002805490508110156117de575f6002828154811061155557611554613cb5565b5b905f5260205f2090600a02019050604051806101600160405280825f0154815260200182600101805461158790613972565b80601f01602080910402602001604051908101604052809291908181526020018280546115b390613972565b80156115fe5780601f106115d5576101008083540402835291602001916115fe565b820191905f5260205f20905b8154815290600101906020018083116115e157829003601f168201915b5050505050815260200182600201805461161790613972565b80601f016020809104026020016040519081016040528092919081815260200182805461164390613972565b801561168e5780601f106116655761010080835404028352916020019161168e565b820191905f5260205f20905b81548152906001019060200180831161167157829003601f168201915b5050505050815260200182600301548152602001826004015f9054906101000a900473ffffffffffffffffffffffffffffffffffffffff1673ffffffffffffffffffffffffffffffffffffffff168152602001826005015f9054906101000a900473ffffffffffffffffffffffffffffffffffffffff1673ffffffffffffffffffffffffffffffffffffffff16815260200182600601548152602001826007015f9054906101000a900460ff16600381111561174d5761174c6130bc565b5b81526020018260070160019054906101000a900473ffffffffffffffffffffffffffffffffffffffff1673ffffffffffffffffffffffffffffffffffffffff16815260200182600801548152602001826009015f9054906101000a900460ff1615158152508383815181106117c5576117c4613cb5565b5b6020026020010181905250508080600101915050611533565b508091505090565b5f5f60149054906101000a900460ff16905090565b6002818154811061180a575f80fd5b905f5260205f2090600a02015f91509050805f01549080600101805461182f90613972565b80601f016020809104026020016040519081016040528092919081815260200182805461185b90613972565b80156118a65780601f1061187d576101008083540402835291602001916118a6565b820191905f5260205f20905b81548152906001019060200180831161188957829003601f168201915b5050505050908060020180546118bb90613972565b80601f01602080910402602001604051908101604052809291908181526020018280546118e790613972565b80156119325780601f1061190957610100808354040283529160200191611932565b820191905f5260205f20905b81548152906001019060200180831161191557829003601f168201915b505050505090806003015490806004015f9054906101000a900473ffffffffffffffffffffffffffffffffffffffff1690806005015f9054906101000a900473ffffffffffffffffffffffffffffffffffffffff1690806006015490806007015f9054906101000a900460ff16908060070160019054906101000a900473ffffffffffffffffffffffffffffffffffffffff1690806008015490806009015f9054906101000a900460ff1690508b565b5f6060805f5f5f5f5f5f5f5f5f60028d81548110611a0357611a02613cb5565b5b905f5260205f2090600a02019050805f015481600101826002018360030154846004015f9054906101000a900473ffffffffffffffffffffffffffffffffffffffff16856005015f9054906101000a900473ffffffffffffffffffffffffffffffffffffffff168660060154876007015f9054906101000a900460ff168860070160019054906101000a900473ffffffffffffffffffffffffffffffffffffffff1689600801548a6009015f9054906101000a900460ff16898054611ac790613972565b80601f0160208091040260200160405190810160405280929190818152602001828054611af390613972565b8015611b3e5780601f10611b1557610100808354040283529160200191611b3e565b820191905f5260205f20905b815481529060010190602001808311611b2157829003601f168201915b50505050509950888054611b5190613972565b80601f0160208091040260200160405190810160405280929190818152602001828054611b7d90613972565b8015611bc85780601f10611b9f57610100808354040283529160200191611bc8565b820191905f5260205f20905b815481529060010190602001808311611bab57829003601f168201915b505050505098509b509b509b509b509b509b509b509b509b509b509b505091939597999b90929496989a50565b611bfd6127af565b611c065f612914565b565b611c10612836565b611c18612877565b6002805490508110611c5f576040517f08c379a0000000000000000000000000000000000000000000000000000000008152600401611c5690613c97565b60405180910390fd5b5f60028281548110611c7457611c73613cb5565b5b905f5260205f2090600a020190505f6003811115611c9557611c946130bc565b5b816007015f9054906101000a900460ff166003811115611cb857611cb76130bc565b5b14611cf8576040517f08c379a0000000000000000000000000000000000000000000000000000000008152600401611cef9061411b565b60405180910390fd5b806004015f9054906101000a900473ffffffffffffffffffffffffffffffffffffffff1673ffffffffffffffffffffffffffffffffffffffff163373ffffffffffffffffffffffffffffffffffffffff1603611d89576040517f08c379a0000000000000000000000000000000000000000000000000000000008152600401611d8090614183565b60405180910390fd5b5f73ffffffffffffffffffffffffffffffffffffffff16816005015f9054906101000a900473ffffffffffffffffffffffffffffffffffffffff1673ffffffffffffffffffffffffffffffffffffffff1614611e7157806005015f9054906101000a900473ffffffffffffffffffffffffffffffffffffffff1673ffffffffffffffffffffffffffffffffffffffff163373ffffffffffffffffffffffffffffffffffffffff1614611e70576040517f08c379a0000000000000000000000000000000000000000000000000000000008152600401611e67906141eb565b60405180910390fd5b5b80600601544210611eb7576040517f08c379a0000000000000000000000000000000000000000000000000000000008152600401611eae90614253565b60405180910390fd5b80600301543414611efd576040517f08c379a0000000000000000000000000000000000000000000000000000000008152600401611ef4906142bb565b60405180910390fd5b33816005015f6101000a81548173ffffffffffffffffffffffffffffffffffffffff021916908373ffffffffffffffffffffffffffffffffffffffff1602179055506001816007015f6101000a81548160ff02191690836003811115611f6657611f656130bc565b5b021790555060035f826004015f9054906101000a900473ffffffffffffffffffffffffffffffffffffffff1673ffffffffffffffffffffffffffffffffffffffff1673ffffffffffffffffffffffffffffffffffffffff1681526020019081526020015f205f015f815480929190611fdd90613f11565b9190505550806003015460035f836004015f9054906101000a900473ffffffffffffffffffffffffffffffffffffffff1673ffffffffffffffffffffffffffffffffffffffff1673ffffffffffffffffffffffffffffffffffffffff1681526020019081526020015f206003015f8282546120589190613842565b9250508190555060035f3373ffffffffffffffffffffffffffffffffffffffff1673ffffffffffffffffffffffffffffffffffffffff1681526020019081526020015f205f015f8154809291906120ae90613f11565b9190505550806003015460035f3373ffffffffffffffffffffffffffffffffffffffff1673ffffffffffffffffffffffffffffffffffffffff1681526020019081526020015f206003015f8282546121069190613842565b925050819055505f60045f3373ffffffffffffffffffffffffffffffffffffffff1673ffffffffffffffffffffffffffffffffffffffff1681526020019081526020015f208054905014806121fe57508160045f3373ffffffffffffffffffffffffffffffffffffffff1673ffffffffffffffffffffffffffffffffffffffff1681526020019081526020015f20600160045f3373ffffffffffffffffffffffffffffffffffffffff1673ffffffffffffffffffffffffffffffffffffffff1681526020019081526020015f20805490506121e19190613ede565b815481106121f2576121f1613cb5565b5b905f5260205f20015414155b156122655760045f3373ffffffffffffffffffffffffffffffffffffffff1673ffffffffffffffffffffffffffffffffffffffff1681526020019081526020015f2082908060018154018082558091505060019003905f5260205f20015f90919091909150555b3373ffffffffffffffffffffffffffffffffffffffff16827ff5c5db4feb68a0523cc61520eb49aeb8f25cbc8b70920abaa300c1562add900060405160405180910390a3506122b2612899565b50565b6122bd6127af565b6122c56129d5565b565b6003602052805f5260405f205f91509050805f0154908060010154908060020154908060030154908060040154905085565b5f5f5f9054906101000a900473ffffffffffffffffffffffffffffffffffffffff16905090565b5f600280549050905090565b6060805f60028054905084116123425783612349565b6002805490505b90505f8167ffffffffffffffff81111561236657612365612d25565b5b6040519080825280602002602001820160405280156123945781602001602082028036833780820191505090505b5090505f8267ffffffffffffffff8111156123b2576123b1612d25565b5b6040519080825280602002602001820160405280156123eb57816020015b6123d8612b0d565b8152602001906001900390816123d05790505b5090505f5f90505f5f90505b6002805490508110801561240a57508482105b156125a4575f6002828154811061242457612423613cb5565b5b905f5260205f2090600a02016004015f9054906101000a900473ffffffffffffffffffffffffffffffffffffffff1690505f60035f8373ffffffffffffffffffffffffffffffffffffffff1673ffffffffffffffffffffffffffffffffffffffff1681526020019081526020015f205f0154111561259057808584815181106124b0576124af613cb5565b5b602002602001019073ffffffffffffffffffffffffffffffffffffffff16908173ffffffffffffffffffffffffffffffffffffffff168152505060035f8273ffffffffffffffffffffffffffffffffffffffff1673ffffffffffffffffffffffffffffffffffffffff1681526020019081526020015f206040518060a00160405290815f820154815260200160018201548152602001600282015481526020016003820154815260200160048201548152505084848151811061257657612575613cb5565b5b6020026020010181905250828061258c90613f11565b9350505b50808061259c90613f11565b9150506123f7565b5082829550955050505050915091565b6125bc6127af565b6125c4612877565b5f60055490505f6005819055505f6125da6122f9565b73ffffffffffffffffffffffffffffffffffffffff16826040516125fd90613f85565b5f6040518083038185875af1925050503d805f8114612637576040519150601f19603f3d011682016040523d82523d5f602084013e61263c565b606091505b5050905080612680576040517f08c379a000000000000000000000000000000000000000000000000000000000815260040161267790613fe3565b60405180910390fd5b505061268a612899565b565b60055481565b6103e881565b6126a06127af565b5f73ffffffffffffffffffffffffffffffffffffffff168173ffffffffffffffffffffffffffffffffffffffff1603612710575f6040517f1e4fbdf70000000000000000000000000000000000000000000000000000000081526004016127079190613479565b60405180910390fd5b61271981612914565b50565b606060045f8373ffffffffffffffffffffffffffffffffffffffff1673ffffffffffffffffffffffffffffffffffffffff1681526020019081526020015f208054806020026020016040519081016040528092919081815260200182805480156127a357602002820191905f5260205f20905b81548152602001906001019080831161278f575b50505050509050919050565b6127b7612a37565b73ffffffffffffffffffffffffffffffffffffffff166127d56122f9565b73ffffffffffffffffffffffffffffffffffffffff1614612834576127f8612a37565b6040517f118cdaa700000000000000000000000000000000000000000000000000000000815260040161282b9190613479565b60405180910390fd5b565b61283e6117e6565b15612875576040517fd93c066500000000000000000000000000000000000000000000000000000000815260040160405180910390fd5b565b61287f612a3e565b600261289161288c612a7f565b612aa8565b5f0181905550565b60016128ab6128a6612a7f565b612aa8565b5f0181905550565b6128bb612ab1565b5f5f60146101000a81548160ff0219169083151502179055507f5db9ee0a495bf2e6ff9c91a7834c1ba4fdd244a5e8aa4e537bd38aeae4b073aa6128fd612a37565b60405161290a9190613479565b60405180910390a1565b5f5f5f9054906101000a900473ffffffffffffffffffffffffffffffffffffffff169050815f5f6101000a81548173ffffffffffffffffffffffffffffffffffffffff021916908373ffffffffffffffffffffffffffffffffffffffff1602179055508173ffffffffffffffffffffffffffffffffffffffff168173ffffffffffffffffffffffffffffffffffffffff167f8be0079c531659141344cd1fd0a4f28419497f9722a3daafe3b4186f6b6457e060405160405180910390a35050565b6129dd612836565b60015f60146101000a81548160ff0219169083151502179055507f62e78cea01bee320cd4e420270b5ea74000d11b0c9f74754ebdbfc544b05a258612a20612a37565b604051612a2d9190613479565b60405180910390a1565b5f33905090565b612a46612af1565b15612a7d576040517f3ee5aeb500000000000000000000000000000000000000000000000000000000815260040160405180910390fd5b565b5f7f9b779b17422d0df92223018b32b4d1fa46e071723d6817e2486d003becc55f005f1b905090565b5f819050919050565b612ab96117e6565b612aef576040517f8dfc202b00000000000000000000000000000000000000000000000000000000815260040160405180910390fd5b565b5f6002612b04612aff612a7f565b612aa8565b5f015414905090565b6040518060a001604052805f81526020015f81526020015f81526020015f81526020015f81525090565b6040518061016001604052805f815260200160608152602001606081526020015f81526020015f73ffffffffffffffffffffffffffffffffffffffff1681526020015f73ffffffffffffffffffffffffffffffffffffffff1681526020015f81526020015f6003811115612bae57612bad6130bc565b5b81526020015f73ffffffffffffffffffffffffffffffffffffffff1681526020015f81526020015f151581525090565b5f604051905090565b5f5ffd5b5f5ffd5b5f73ffffffffffffffffffffffffffffffffffffffff82169050919050565b5f612c1882612bef565b9050919050565b612c2881612c0e565b8114612c32575f5ffd5b50565b5f81359050612c4381612c1f565b92915050565b5f819050919050565b612c5b81612c49565b8114612c65575f5ffd5b50565b5f81359050612c7681612c52565b92915050565b5f5f60408385031215612c9257612c91612be7565b5b5f612c9f85828601612c35565b9250506020612cb085828601612c68565b9150509250929050565b612cc381612c49565b82525050565b5f602082019050612cdc5f830184612cba565b92915050565b5f60208284031215612cf757612cf6612be7565b5b5f612d0484828501612c68565b91505092915050565b5f5ffd5b5f5ffd5b5f601f19601f8301169050919050565b7f4e487b71000000000000000000000000000000000000000000000000000000005f52604160045260245ffd5b612d5b82612d15565b810181811067ffffffffffffffff82111715612d7a57612d79612d25565b5b80604052505050565b5f612d8c612bde565b9050612d988282612d52565b919050565b5f67ffffffffffffffff821115612db757612db6612d25565b5b612dc082612d15565b9050602081019050919050565b828183375f83830152505050565b5f612ded612de884612d9d565b612d83565b905082815260208101848484011115612e0957612e08612d11565b5b612e14848285612dcd565b509392505050565b5f82601f830112612e3057612e2f612d0d565b5b8135612e40848260208601612ddb565b91505092915050565b5f8115159050919050565b612e5d81612e49565b8114612e67575f5ffd5b50565b5f81359050612e7881612e54565b92915050565b5f5f5f5f5f60a08688031215612e9757612e96612be7565b5b5f86013567ffffffffffffffff811115612eb457612eb3612beb565b5b612ec088828901612e1c565b955050602086013567ffffffffffffffff811115612ee157612ee0612beb565b5b612eed88828901612e1c565b9450506040612efe88828901612c68565b9350506060612f0f88828901612e6a565b9250506080612f2088828901612c35565b9150509295509295909350565b5f5f60408385031215612f4357612f42612be7565b5b5f612f5085828601612c68565b9250506020612f6185828601612e6a565b9150509250929050565b5f60208284031215612f8057612f7f612be7565b5b5f612f8d84828501612c35565b91505092915050565b612f9f81612c49565b82525050565b60a082015f820151612fb95f850182612f96565b506020820151612fcc6020850182612f96565b506040820151612fdf6040850182612f96565b506060820151612ff26060850182612f96565b5060808201516130056080850182612f96565b50505050565b5f60a08201905061301e5f830184612fa5565b92915050565b5f81519050919050565b5f82825260208201905092915050565b5f819050602082019050919050565b5f81519050919050565b5f82825260208201905092915050565b8281835e5f83830152505050565b5f61307f8261304d565b6130898185613057565b9350613099818560208601613067565b6130a281612d15565b840191505092915050565b6130b681612c0e565b82525050565b7f4e487b71000000000000000000000000000000000000000000000000000000005f52602160045260245ffd5b600481106130fa576130f96130bc565b5b50565b5f81905061310a826130e9565b919050565b5f613119826130fd565b9050919050565b6131298161310f565b82525050565b61313881612e49565b82525050565b5f61016083015f8301516131545f860182612f96565b506020830151848203602086015261316c8282613075565b915050604083015184820360408601526131868282613075565b915050606083015161319b6060860182612f96565b5060808301516131ae60808601826130ad565b5060a08301516131c160a08601826130ad565b5060c08301516131d460c0860182612f96565b5060e08301516131e760e0860182613120565b506101008301516131fc6101008601826130ad565b50610120830151613211610120860182612f96565b5061014083015161322661014086018261312f565b508091505092915050565b5f61323c838361313e565b905092915050565b5f602082019050919050565b5f61325a82613024565b613264818561302e565b9350836020820285016132768561303e565b805f5b858110156132b157848403895281516132928582613231565b945061329d83613244565b925060208a01995050600181019050613279565b50829750879550505050505092915050565b5f6020820190508181035f8301526132db8184613250565b905092915050565b6132ec81612e49565b82525050565b5f6020820190506133055f8301846132e3565b92915050565b5f82825260208201905092915050565b5f6133258261304d565b61332f818561330b565b935061333f818560208601613067565b61334881612d15565b840191505092915050565b61335c81612c0e565b82525050565b61336b8161310f565b82525050565b5f610160820190506133855f83018e612cba565b8181036020830152613397818d61331b565b905081810360408301526133ab818c61331b565b90506133ba606083018b612cba565b6133c7608083018a613353565b6133d460a0830189613353565b6133e160c0830188612cba565b6133ee60e0830187613362565b6133fc610100830186613353565b61340a610120830185612cba565b6134186101408301846132e3565b9c9b505050505050505050505050565b5f60a08201905061343b5f830188612cba565b6134486020830187612cba565b6134556040830186612cba565b6134626060830185612cba565b61346f6080830184612cba565b9695505050505050565b5f60208201905061348c5f830184613353565b92915050565b5f81519050919050565b5f82825260208201905092915050565b5f819050602082019050919050565b5f6134c683836130ad565b60208301905092915050565b5f602082019050919050565b5f6134e882613492565b6134f2818561349c565b93506134fd836134ac565b805f5b8381101561352d57815161351488826134bb565b975061351f836134d2565b925050600181019050613500565b5085935050505092915050565b5f81519050919050565b5f82825260208201905092915050565b5f819050602082019050919050565b60a082015f8201516135775f850182612f96565b50602082015161358a6020850182612f96565b50604082015161359d6040850182612f96565b5060608201516135b06060850182612f96565b5060808201516135c36080850182612f96565b50505050565b5f6135d48383613563565b60a08301905092915050565b5f602082019050919050565b5f6135f68261353a565b6136008185613544565b935061360b83613554565b805f5b8381101561363b57815161362288826135c9565b975061362d836135e0565b92505060018101905061360e565b5085935050505092915050565b5f6040820190508181035f83015261366081856134de565b9050818103602083015261367481846135ec565b90509392505050565b5f81519050919050565b5f82825260208201905092915050565b5f819050602082019050919050565b5f6136b18383612f96565b60208301905092915050565b5f602082019050919050565b5f6136d38261367d565b6136dd8185613687565b93506136e883613697565b805f5b838110156137185781516136ff88826136a6565b975061370a836136bd565b9250506001810190506136eb565b5085935050505092915050565b5f6020820190508181035f83015261373d81846136c9565b905092915050565b7f4665652063616e6e6f74206578636565642035250000000000000000000000005f82015250565b5f61377960148361330b565b915061378482613745565b602082019050919050565b5f6020820190508181035f8301526137a68161376d565b9050919050565b7f5374616b65206d7573742062652067726561746572207468616e2030000000005f82015250565b5f6137e1601c8361330b565b91506137ec826137ad565b602082019050919050565b5f6020820190508181035f83015261380e816137d5565b9050919050565b7f4e487b71000000000000000000000000000000000000000000000000000000005f52601160045260245ffd5b5f61384c82612c49565b915061385783612c49565b925082820190508082111561386f5761386e613815565b5b92915050565b7f426174746c65206d757374206c617374206174206c65617374203120686f75725f82015250565b5f6138a960208361330b565b91506138b482613875565b602082019050919050565b5f6020820190508181035f8301526138d68161389d565b9050919050565b7f50726564696374696f6e2063616e6e6f7420626520656d7074790000000000005f82015250565b5f613911601a8361330b565b915061391c826138dd565b602082019050919050565b5f6020820190508181035f83015261393e81613905565b9050919050565b7f4e487b71000000000000000000000000000000000000000000000000000000005f52602260045260245ffd5b5f600282049050600182168061398957607f821691505b60208210810361399c5761399b613945565b5b50919050565b5f819050815f5260205f209050919050565b5f6020601f8301049050919050565b5f82821b905092915050565b5f600883026139fe7fffffffffffffffffffffffffffffffffffffffffffffffffffffffffffffffff826139c3565b613a0886836139c3565b95508019841693508086168417925050509392505050565b5f819050919050565b5f613a43613a3e613a3984612c49565b613a20565b612c49565b9050919050565b5f819050919050565b613a5c83613a29565b613a70613a6882613a4a565b8484546139cf565b825550505050565b5f5f905090565b613a87613a78565b613a92818484613a53565b505050565b5b81811015613ab557613aaa5f82613a7f565b600181019050613a98565b5050565b601f821115613afa57613acb816139a2565b613ad4846139b4565b81016020851015613ae3578190505b613af7613aef856139b4565b830182613a97565b50505b505050565b5f82821c905092915050565b5f613b1a5f1984600802613aff565b1980831691505092915050565b5f613b328383613b0b565b9150826002028217905092915050565b613b4b8261304d565b67ffffffffffffffff811115613b6457613b63612d25565b5b613b6e8254613972565b613b79828285613ab9565b5f60209050601f831160018114613baa575f8415613b98578287015190505b613ba28582613b27565b865550613c09565b601f198416613bb8866139a2565b5f5b82811015613bdf57848901518255600182019150602085019450602081019050613bba565b86831015613bfc5784890151613bf8601f891682613b0b565b8355505b6001600288020188555050505b505050505050565b5f6060820190508181035f830152613c29818661331b565b9050613c386020830185612cba565b613c456040830184612cba565b949350505050565b7f426174746c6520646f6573206e6f7420657869737400000000000000000000005f82015250565b5f613c8160158361330b565b9150613c8c82613c4d565b602082019050919050565b5f6020820190508181035f830152613cae81613c75565b9050919050565b7f4e487b71000000000000000000000000000000000000000000000000000000005f52603260045260245ffd5b7f426174746c65206e6f74206163746976650000000000000000000000000000005f82015250565b5f613d1660118361330b565b9150613d2182613ce2565b602082019050919050565b5f6020820190508181035f830152613d4381613d0a565b9050919050565b7f4f6e6c79206368616c6c656e676572206f72206f776e65722063616e207265735f8201527f6f6c766500000000000000000000000000000000000000000000000000000000602082015250565b5f613da460248361330b565b9150613daf82613d4a565b604082019050919050565b5f6020820190508181035f830152613dd181613d98565b9050919050565b7f426174746c6520686173206e6f7420656e6465642079657400000000000000005f82015250565b5f613e0c60188361330b565b9150613e1782613dd8565b602082019050919050565b5f6020820190508181035f830152613e3981613e00565b9050919050565b5f613e4a82612c49565b9150613e5583612c49565b9250828202613e6381612c49565b91508282048414831517613e7a57613e79613815565b5b5092915050565b7f4e487b71000000000000000000000000000000000000000000000000000000005f52601260045260245ffd5b5f613eb882612c49565b9150613ec383612c49565b925082613ed357613ed2613e81565b5b828204905092915050565b5f613ee882612c49565b9150613ef383612c49565b9250828203905081811115613f0b57613f0a613815565b5b92915050565b5f613f1b82612c49565b91507fffffffffffffffffffffffffffffffffffffffffffffffffffffffffffffffff8203613f4d57613f4c613815565b5b600182019050919050565b5f81905092915050565b50565b5f613f705f83613f58565b9150613f7b82613f62565b5f82019050919050565b5f613f8f82613f65565b9150819050919050565b7f5472616e73666572206661696c656400000000000000000000000000000000005f82015250565b5f613fcd600f8361330b565b9150613fd882613f99565b602082019050919050565b5f6020820190508181035f830152613ffa81613fc1565b9050919050565b7f43616e206f6e6c792063616e63656c206f70656e20626174746c6573000000005f82015250565b5f614035601c8361330b565b915061404082614001565b602082019050919050565b5f6020820190508181035f83015261406281614029565b9050919050565b7f4f6e6c79206368616c6c656e6765722063616e2063616e63656c0000000000005f82015250565b5f61409d601a8361330b565b91506140a882614069565b602082019050919050565b5f6020820190508181035f8301526140ca81614091565b9050919050565b7f426174746c65206e6f74206f70656e00000000000000000000000000000000005f82015250565b5f614105600f8361330b565b9150614110826140d1565b602082019050919050565b5f6020820190508181035f830152614132816140f9565b9050919050565b7f43616e6e6f742061636365707420796f7572206f776e20626174746c650000005f82015250565b5f61416d601d8361330b565b915061417882614139565b602082019050919050565b5f6020820190508181035f83015261419a81614161565b9050919050565b7f426174746c6520697320666f72207370656369666963206f70706f6e656e74005f82015250565b5f6141d5601f8361330b565b91506141e0826141a1565b602082019050919050565b5f6020820190508181035f830152614202816141c9565b9050919050565b7f426174746c6520686173206578706972656400000000000000000000000000005f82015250565b5f61423d60128361330b565b915061424882614209565b602082019050919050565b5f6020820190508181035f83015261426a81614231565b9050919050565b7f4d757374206d61746368207374616b6520616d6f756e740000000000000000005f82015250565b5f6142a560178361330b565b91506142b082614271565b602082019050919050565b5f6020820190508181035f8301526142d281614299565b905091905056fea264697066735822122093ca15eb60a4641538cefa4175176e033a7ecc4506a99b476bdef63cb835c0b364736f6c634300081c0033","linkReferences":{}},"methodIdentifiers":{"FEE_DENOMINATOR()":"d73792a9","acceptBattle(uint256)":"81ec30f2","battles(uint256)":"606d2e96","cancelBattle(uint256)":"4c4c447e","createBattle(string,string,uint256,bool,address)":"177983b2","emergencyWithdraw(uint256)":"5312ea8e","getAllBattles()":"5c93fc3d","getBattle(uint256)":"6dd0ce7a","getBattlesCount()":"9cc429dc","getLeaderboard(uint256)":"a34b46fe","getUserBattles(address)":"f5dbbaed","getUserStats(address)":"4e43603a","owner()":"8da5cb5b","pause()":"8456cb59","paused()":"5c975abb","platformFee()":"26232a2e","renounceOwnership()":"715018a6","resolveBattle(uint256,bool)":"35266eca","setPlatformFee(uint256)":"12e8e2c3","totalPlatformFees()":"d3631fa5","transferOwnership(address)":"f2fde38b","unpause()":"3f4ba83a","userBattles(address,uint256)":"05760181","userStats(address)":"8a65d874","withdrawPlatformFees()":"d0b7830b"},"id":21}